:020000040000FA
:1000000060040020C9020000D1020000D3020000F9
:10001000D5020000D7020000D90200000000000055
:10002000000000000000000000000000DB020000F3
:10003000DD02000000000000DF02000041140000AB
:10004000E3020000E5020000E7020000E902000010
:10005000EB020000ED020000EF020000F1020000E0
:10006000F3020000F5020000F7020000F9020000B0
:10007000FB020000FD020000FF020000010300007F
:10008000030300000503000007030000090300004C
:100090000B0300000D0300000F030000110300001C
:1000A00013030000150300001703000019030000EC
:1000B0001B0300001D0300001F03000021030000BC
:1000C000230300002503000027030000290300008C
:1000D0002B0300002D0300002F030000310300005C
:1000E000330300003503000037030000390300002C
:1000F0003B0300003D0300003F03000041030000FC
:1001000043030000450300004703000049030000CB
:100110004B0300004D0300004F030000510300009B
:10012000530300005503000057030000590300006B
:100130005B0300005D0300005F030000610300003B
:1001400063030000650300006703000081030000F3
:100150000000000000000000830300008503000091
:100160008703000089030000000000008B030000EB
:100170008D0300008F030000910300009303000033
:100180009503000097030000990300009B03000003
:100190009D0300009F030000A1030000A3030000D3
:1001A000A5030000A7030000A9030000AB030000A3
:1001B000AD030000AF030000B1030000B303000073
:1001C000B5030000B7030000B9030000BB03000043
:1001D000BD030000BF030000C1030000C303000013
:1001E000C5030000C7030000C9030000CB030000E3
:1001F000CD030000CF030000D1030000D3030000B3
:1002000000F002F800F03CF80AA090E8000C8244EC
:100210008344AAF10107DA4501D100F031F8AFF2C9
:10022000090EBAE80F0013F0010F18BFFB1A43F0D4
:10023000010318470824000028240000103A24BFB6
:1002400078C878C1FAD8520724BF30C830C144BF3B
:1002500004680C607047000000230024002500267D
:10026000103A28BF78C1FBD8520728BF30C148BF19
:100270000B6070471FB502F0B1F81FBD10B510BD7F
:1002800000F0BBF81146FFF7F5FF01F069FB00F045
:10029000D9F803B4FFF7F2FF03BC00F0E1F8000067
:1002A000EFF3108072B67047EFF310807047EFF3F2
:1002B000108062B6704730BF704780F31188704776
:1002C000EFF31180704700004548804745480047DC
:1002D000FEE7FEE7FEE7FEE7FEE7FEE7FEE7FEE7F6
:1002E000FEE7FEE7FEE7FEE7FEE7FEE7FEE7FEE7E6
:1002F000FEE7FEE7FEE7FEE7FEE7FEE7FEE7FEE7D6
:10030000FEE7FEE7FEE7FEE7FEE7FEE7FEE7FEE7C5
:10031000FEE7FEE7FEE7FEE7FEE7FEE7FEE7FEE7B5
:10032000FEE7FEE7FEE7FEE7FEE7FEE7FEE7FEE7A5
:10033000FEE7FEE7FEE7FEE7FEE7FEE7FEE7FEE795
:10034000FEE7FEE7FEE7FEE7FEE7FEE7FEE7FEE785
:10035000FEE7FEE7FEE7FEE7FEE7FEE7FEE7FEE775
:10036000FEE7FEE7FEE7FEE7FEE7FEE7FEE7FEE765
:10037000FEE7FEE7FEE7FEE7FEE7FEE7FEE7FEE755
:10038000FEE7FEE7FEE7FEE7FEE7FEE7FEE7FEE745
:10039000FEE7FEE7FEE7FEE7FEE7FEE7FEE7FEE735
:1003A000FEE7FEE7FEE7FEE7FEE7FEE7FEE7FEE725
:1003B000FEE7FEE7FEE7FEE7FEE7FEE7FEE7FEE715
:1003C000FEE7FEE7FEE7FEE7FEE7FEE7FEE7FEE705
:1003D000FEE7FEE704480549034A054B7047000065
:1003E00035160000010200006002002060040020B9
:1003F00060020020704770477047754600F02CF887
:10040000AE4605006946534620F00700854618B001
:1004100020B5FFF7DFFFBDE820404FF000064FF0AA
:1004200000074FF000084FF0000B21F00701AC4629
:10043000ACE8C009ACE8C009ACE8C009ACE8C00948
:100440008D46704710B50446AFF300802046BDE8E6
:100450001040FFF71EBF000000487047FC0100205D
:1004600001491820ABBEFEE72600020070470000DD
:1004700010B51E4800F096FF1C48401C00F092FF8B
:100480001B4800F08FFF0E211A4800F0A4FA002349
:100490001A460121184800F05FF800231A4603218C
:1004A000164800F059F8022300220121124800F0FA
:1004B0009CF86123012211460F4800F096F8602352
:1004C000002203210D4800F090F801210A4800F0B5
:1004D00085F80321094800F081F80121064800F061
:1004E0000FF80321054800F00BF810BD003800F0AC
:1004F000040800F0004002400080034000900340E8
:10050000012202FA01F1C160704732B1C0684FF0B8
:10051000011202FA01F108407047406801228A4046
:1005200042F48032104010F4803F08BF704740F41E
:1005300070204FF4803202FA01F1884370470A4676
:1005400001F00F0101236FF30F0203FA01F11143D0
:10055000826A11438162704730B4446989004FF068
:100560000F0C0CFA01FC02F00F0524EA0C048D407C
:100570002C434461046A03F0030324EA0C0C03FADD
:1005800001F14CEA0101016202F00F018B1F032B04
:1005900084BF30BC7047C900C3694FF0300C30399C
:1005A0000CFA01FC02F0300223EA0C0302FA01F11A
:1005B0001943C16130BC704700EB411000F14001AC
:1005C000002003E08B6842F8043B401CCB6813F426
:1005D000807F18BF70470828F4D370470268012352
:1005E00003FA01F111430160704710B400EB4110B0
:1005F000910050F840CF0F228A4003F00F042CEAFC
:10060000020C8C404CEA040CC0F800C0D0F818C0B2
:10061000C3F303242CEA020C8C404CEA040CC0F80F
:1006200018C0D0F804C0C3F303142CEA020C8C40A9
:100630004CEA040CC0F804C0D0F81CC0C3F3035447
:100640002CEA020C8C404CEA040CC0F81CC013F4D9
:10065000702F4FF001040DD0D0F814C0C3F3024343
:100660002CEA02028B401A434261026904FA01F14A
:10067000114304E0026904FA01F122EA0101016177
:1006800010BC704710B501210A48FFF758FF00BFA2
:10069000002201210748FFF738FF0028F8D0012188
:1006A0000448FFF72DFF044A01210248FFF784FFA9
:1006B00010BD0000008003403400002010B503216D
:1006C0000A48FFF73CFF00BF002203210748FFF75D
:1006D0001CFF0028F8D003210448FFF711FF044A4B
:1006E00003210248FFF768FF10BD0000009003409F
:1006F0003C00002070B50646802501241AE006EA79
:10070000050028B900220121154800F08EF904E007
:1007100001221146124800F088F9022211461048C1
:1007200000F083F9002202210D4800F07EF96D10DF
:10073000601CC4B2082CE2DD0121094800F059F91F
:1007400002221146064800F070F9002202210448F6
:1007500000F06BF90121024800F059F970BD00006A
:10076000002006402DE9F0410546AE000222114668
:10077000184800F05AF901221146164800F055F9C0
:1007800000220121134800F050F9002202211148F3
:1007900000F04BF99820FFF7ADFFC6F30724A6EB56
:1007A0000420C7B22046FFF7A5FF3846FFF7A2FF97
:1007B00000220121074800F038F9022211460548BD
:1007C00000F033F901221146024800F02EF9BDE88D
:1007D000F08100000020064010B50749074800F0EE
:1007E0006FFC0749086000F021F8FFF741FE00F0B8
:1007F0000BFE00F01DF910BD40420F00800600F115
:1008000030000020D0F8003412F0010F14BF0B4369
:100810008B43C0F8003412F0020FD0F8202414BF2C
:10082000114322EA0101C0F82014704710B51648A0
:1008300000F0B8FD00BF144800F0C8FD0028FAD051
:100840001148801C00F0AEFD00BF0F48801C00F076
:10085000BDFD0028F9D00C48401C00F0A3FD00BFEE
:100860000948401C00F0B2FD0028F9D030210748AB
:1008700000F0CDF80121064800F0C9F80321054831
:1008800000F0C5F810BD0000090800F00010064097
:1008900000300640002006402DE9F00301264FF00D
:1008A000000C0325C2F3411706FA0CF40C4211D0D8
:1008B000D0F8C48F4FEA4C0405FA04F928EA090875
:1008C000C0F8C48FD0F8C48F07FA04F448EA0404CF
:1008D000C0F8C44F0CF1010C0CF0FF0CBCF1080F78
:1008E000E2D3D0F800C512F0010F14BF4CEA010C9E
:1008F0002CEA010CC0F800C5D0F804C512F0020FB4
:1009000014BF4CEA010C2CEA010CC0F804C5D0F865
:1009100008C512F0040F14BF4CEA010C2CEA010CBC
:10092000C0F808C5D0F818C512F0080F14BF4CEA7B
:10093000010C2CEA010CC0F818C512F0100FD0F809
:100940003C2514BF0A438A43C0F83C25D0F80C2547
:1009500013F0010F14BF0A438A43C0F80C25D0F8E6
:10096000102513F0020F14BF0A438A43C0F8102564
:10097000D0F8142513F0040F14BF0A438A43C0F8BB
:100980001425D0F81C2513F0080F14BF0A438A431E
:10099000C0F81C25D0F8442513F4007F14BF0A4387
:1009A0008A43C0F84425D0F8402513F4407F14BF93
:1009B0000A438A43C0F84025D0F82825002B0CBFF5
:1009C000114322EA0101C0F82815BDE8F003704781
:1009D00050F82100704730B50C4605460022FFF75D
:1009E00011FF21462846BDE8304000230122FFF7D1
:1009F00053BF30B50C4605460022FFF703FF2146E2
:100A00002846BDE8304008230122FFF745BF30B536
:100A10000C46054608230122FFF73EFF21462846E3
:100A2000BDE830400122FFF7EDBE40F821207047BD
:100A300010B5FFF73CFC002818BF012010BD0000D6
:100A400010B52DED048BBA48BA49097850F8210049
:100A5000B9490968081AB8490860B848B849097816
:100A600050F82100B7490968081AB6490860B64825
:100A7000B649097850F82100B5490968081AB449FF
:100A80000860FFF7FFFDFFF719FEB2480068A849AC
:100A9000A84A127841F822000846A649097850F879
:100AA0002100A54909680844A3490860A1480078C5
:100AB000401C1E2190FBF1F201FB12009D490870C1
:100AC000A44841689D489E4A127840F822109C49EB
:100AD000097850F821009B49096808449949086041
:100AE00097480078401C1E2190FBF1F201FB120098
:100AF00093490870984800689349944A127841F8DD
:100B0000220008469149097850F821009049096867
:100B100008448F4908608D480078401C1E2190FBD6
:100B2000F1F201FB120089490870834800681E2118
:100B3000B0FBF1F089490860824800681E21B0FBD3
:100B4000F1F087490860824800681E21B0FBF1F08F
:100B5000844908608148006801F045FA41EC190BAE
:100B60009FED810B53EC102B01F0B8F841EC180B02
:100B700001F00CFA794908607948006801F033FA0D
:100B800041EC190B9FED7A0B53EC102B01F0A6F8FA
:100B900041EC180B01F0FAF97149086071480068DE
:100BA00001F021FA41EC190B9FED710B53EC102B66
:100BB00001F094F841EC180B01F0E8F9694908607C
:100BC00066480068400065490860654800680F2174
:100BD000B0FBF1F0624908600846006801F003FAD2
:100BE00041EC190B9FED640B53EC102B01F076F8E0
:100BF00041EC180B01F0CAF95949086059480068DE
:100C00000F21B0FBF1F0574908600846006801F079
:100C1000EAF941EC190B9FED580B53EC102B01F046
:100C20005DF841EC180B01F0B1F94E4908604C48F1
:100C3000006801F0D8F941EC190B9FED510B53EC12
:100C4000102B01F0E3F941EC180B01F09FF9444936
:100C500008604448006801F0C6F941EC190B9FEDAB
:100C60004A0B53EC102B01F0D1F941EC180B01F0B9
:100C70008DF93C4908603A48006809680844400812
:100C80004349086037480068B0F5617F11D90846CC
:100C9000006801F0A8F941EC190B9FED3E0B53ECF5
:100CA000102B01F0B3F941EC180B01F06FF9384942
:100CB00008602C480068B0F5E17F17D92948006822
:100CC00040F22621884211D23148006801F08BF9A8
:100CD00041EC190B9FED310B53EC102B01F096F901
:100CE00041EC180B01F052F9294908601D480068D1
:100CF00040F28A21884217D91A48006840F2EE2152
:100D0000884211D22248006801F06DF941EC190BBC
:100D10009FED240B53EC102B01F078F941EC180BEC
:100D200001F034F91A490860BDEC048B10BD0000D5
:100D30009400002040000020440000200C0100200E
:100D400041000020480000208401002042000020D3
:100D50004C000020340000203C0000205000002007
:100D60005400002058000020F931E6AE25E4F33F9E
:100D70005839B4C876BEF33FB7D100DE0209BA3F96
:100D80006891ED7C3F35F03F9CC420B07268F03F25
:100D900088000020E7FBA9F1D24DF03FAE47E17A91
:100DA00014AEEF3FFED478E92631F03F10B52DEDBB
:100DB0000A8BAB480078012806D002284ED00328C1
:100DC0005AD0042816D12FE1A6480068A649086029
:100DD000A6480068A6490968401A0A280BD2A34809
:100DE0000068A3490968401A10F10A0F03D90120CD
:100DF0009B4908702CE19B48006801F0F4F841EC35
:100E00001C0B9FED9C0B53EC102B01F0FFF841ECF9
:100E10001B0B9FED9A0B53EC102B01F0F5F941ECF5
:100E20001A0B9FED980B53EC102B01F0EFF841ECEF
:100E3000190B9FED960B53EC102B00F04FFF41EC7C
:100E4000180B01F0A3F89349086002208449087048
:100E500000209149087091490870F9E08F480078A6
:100E600030B100208D49087003207D49087002E0F0
:100E700002207B490870EBE08948007830B10020FF
:100E800087490870032076490870E1E076480068D9
:100E90007449096888427DD07448016871480068C7
:100EA000C01C814249D97F48006841F250418842C4
:100EB00043D26E4800686B490968401A7A49086055
:100EC0006A4800686A490968401A0A281AD27148B3
:100ED0000068764908600120754908706D4800680F
:100EE000744908600846006873490968401A09D0C7
:100EF0007048006870490968401A0A2802D2012027
:100F00006E4908706D48007870B967480068142809
:100F100005DD60480068401E5E49086004E05D48E9
:100F20000068401E5B49086000205B4908705B490F
:100F3000087002204A49087068E04A480068C01EEC
:100F40004A49096888424ED95648006841F25041E2
:100F5000884248D24348006844490968401A5249C7
:100F600008604348006841490968401A0A281CD2B1
:100F7000484800684D49086001204D4908704548BF
:100F800000684D4908604B4800680968401A0FD056
:100F9000484800E037E0006847490968401A0A28D5
:100FA00006D201204549087002E00020404908703F
:100FB0004248007870B93C480068142805DD35487F
:100FC0000068401D3349086004E032480068401C56
:100FD000304908600020304908703049087002200C
:100FE0001F49087012E0214800681E4909688842BC
:100FF0000CD22C48006841F25041884206D90420A6
:101000001749087002E0012015490870154800686A
:1010100015490968884202D0012011490870114819
:1010200000681149086013E00E4800680F4909681C
:10103000884209D91B48006841F25041884203D9CF
:1010400004200749087002E003200549087000BF2A
:1010500000BF002019490870BDEC0A8B10BD0000CC
:101060006A000020880000208C000020540000202E
:10107000580000206DE7FBA9F1D2ED3F3D0AD7A350
:10108000703D0E40000000000000604000000000C5
:1010900000407140240000200300002008000020D0
:1010A00009000020500000206C0000208400002077
:1010B00080000020700000207400002078000020D4
:1010C0002DE9F003AD4D02462868AD4B1840A0F164
:1010D0008053B3F5A02358D002F03809DFF8A4827A
:1010E000C2F38414B9F1100F24D0B9F1300F04BF4A
:1010F00047F230504FF400130CD03820904304BF17
:101100004FF40040C30105D012F0380F1CBF00207F
:10111000034613D09C4F12F4605F4FF0000618BFD7
:1011200000222CD057F8324044457DD307EBC20251
:101130005268DFE0002340461524EBE7A4F10900E4
:10114000122822D29148D5F87CC04FF04C7350F849
:1011500024002CF01C0C072CA8BF4CF0100CC5F878
:101160007CC02E6D4FF4002C16F4807FD2D1BCF1E0
:10117000010C0AD02E6D16F4807FF8D0CAE712F069
:10118000380F18BFB9F1100F03D0BDE8F0030020ED
:101190007047C2F30268DFF8F8C1002257F83290B6
:1011A000E14503D307EBC202526803E0521C062A52
:1011B000F4D33246C5F8C020D5F8B020DFF8D4C14A
:1011C00002EA0C0242F00042C5F8B020DFF8C8C1C4
:1011D000A4F109024C1E5CF828C0A444BCFBF1FC3D
:1011E000D5F8B0101943C5F8B01008EBC80101EBF1
:1011F00041046A4902EB420201EBC40101EB8204A3
:101200006468C5F86441D5F864416FF0FF0808EBE5
:101210000C2C44EA0C0CC5F864C151F82210D5F826
:10122000602102F4000200E05FE01143C5F86011A4
:10123000D5F86011D5F86021C1F38921C2F3090402
:10124000D5F86421C2F3042202F1010CD5F864211F
:1012500002F01F02521CB0FBF2F04A09C2F1000872
:101260004443424301EB481104EB5212484302EB62
:101270009020B0FBFCF041080846002257F832C02D
:10128000844503D307EBC200466802E0521C062ADD
:10129000F4D3C5F8C060D5F8600110F4000F1DBF8D
:1012A000D5F8B00040F08040C5F8B000D5F8600136
:1012B00004BF40F40000C5F860014FF40040D5F8C9
:1012C000682112F0010F02D1401E0028F7DC00282F
:1012D00008BF002148D0D5F8B000184340F0010005
:1012E00040F01040C5F8B0003EE0521C062AFFF462
:1012F00019AF3246C5F8C020D5F8602122F40002AB
:10130000C5F86021D5F8B020DFF894C002EA0C02DD
:1013100042F00042C5F8B020002908BF4FF0000C91
:101320000AD0B0FBF1FCBCF1000F18BFACF1010C0E
:101330000CF10101B0FBF1F10846002257F83240F0
:10134000844203D307EBC200466802E0521C062A1F
:10135000F4D3C5F8C060D5F8B00043EA8C2210433E
:1013600040F00040C5F8B000D5F8B00020F470009F
:10137000C5F8B000BDE8F0030846704700E00F4034
:101380000000FF700024F4000C260000F023000091
:1013900040787D0100FC0FE0E82300005C240000A1
:1013A000FF0300EFC0F307230749C0B2194401F05F
:1013B0007043C1F3130143EA411141EA800040F058
:1013C000007001220260704700E60F40C0F3072260
:1013D0000849C0B2114401F07042C1F3130142EA5E
:1013E000411141EA800040F000700068002818BFF9
:1013F0000120704700EA0F404FF0E020016941F002
:10140000050101617047000010B5064800683221EF
:10141000B0FBF1F4204600F00EF8FFF7EDFF00F00E
:1014200003F810BD300000204FF0E020016941F0CA
:101430000201016170474FF0E021401E4861704792
:1014400010B56A480078401CC0B268490870052889
:1014500005DB012066490870002064490870654872
:101460000078401CC0B263490870022805DB0120E7
:101470006149087000205F49087060480078401C8E
:10148000C0B25E490870782805DB01205C4908700D
:1014900000205A4908705B480078401CC0B2594986
:1014A0000870192805DB01205749087000205549AC
:1014B000087056480078401CC0B2544908700C2887
:1014C00005DB012052490870002050490870514A3C
:1014D00051480178514800F0A1F900F04FF9504906
:1014E00008700846007800287CD04E480078042810
:1014F00005DA4C480078401C4A49087075E04948B4
:101500000078042871D1464800780A2864D2DFE8C0
:1015100000F06305203C132F4A565A5F424800688A
:10152000B0F5617F07D84048006864303E490860E4
:1015300001203E49087050E03B480068642807D30A
:101540003948006864383849086001203749087014
:1015500043E03548006840F2DF31884207D2324824
:1015600000680A303049086001203049087034E0D2
:101570002D4800680A2807D32B4800680A382A49F2
:10158000086001202949087027E027480068B0F565
:101590007A7F07D224480068401C23490860012054
:1015A0002249087019E02048006838B11E480068D8
:1015B000401E1D49086001201C4908700DE00120F3
:1015C0001B49087009E002201949087005E009E08C
:1015D00003201749087000E000BF00BF0520114933
:1015E000087002E000200F49087010BD00000020C4
:1015F0000500002002000020070000200400002059
:101600000900002001000020060000200300002047
:101610000800002019000020180000201000002001
:101620002100002022000020600000202C0000206B
:10163000690000200448006840F470000249086016
:10164000024803490860704788ED00E00024F40078
:1016500090000020014600202D2956D014DC2129BD
:1016600076D2DFE801F030323436383A3C3E404240
:101670004446484A4C4E7575757575757575757522
:1016800075757575757554004C294ED00ADCA1F13D
:101690004102092A5CD2DFE802F03E5B594E4C441D
:1016A0003C524000592948D006DC4E2937D05229F7
:1016B0003DD055294CD136E05F2924D0622943D052
:1016C0006F2945D13EE03F2044E0062042E05B2008
:1016D00040E04F203EE066203CE06D203AE07D2077
:1016E00038E0072036E07F2034E06F2032E07720BA
:1016F00030E07C202EE039202CE05E202AE07920AA
:1017000028E0712026E0082024E0402022E000208C
:1017100020E03D201EE077201CE006201AE0372064
:1017200018E0712016E03E2014E0382012E050202E
:1017300010E079200EE05E200CE06E200AE07620BA
:1017400008E005E05C2005E07C2003E0392001E0B2
:10175000002000BF00BF704710B5002210210648CE
:10176000FFF763F98A2000F0A7F81022114602481B
:10177000FFF75BF910BD00000010064038B50025EA
:10178000002210212448FFF750F9422000F094F87D
:10179000002401E0601CC4B2052CFBDB002405E042
:1017A00000F0B4F80DF80400601CC4B2042CF7DBA0
:1017B000102211461848FFF738F99DF80000042858
:1017C00000D101259DF80000022800D102259DF8D6
:1017D0000000012800D103259DF80000402800D119
:1017E00004259DF80000202800D105259DF8000063
:1017F000102800D106259DF80100042800D10725F6
:101800009DF80100022800D108259DF8010001285B
:1018100000D10925284638BD001006402DE9FF41BA
:1018200005460E4617464FF00108002419E0285DD2
:10183000FFF710FF0DF8140006EA080028B11DF8A4
:10184000140040F080000DF814004FEA48604FEAA1
:101850001068385D012101EB44010DF80100601CA6
:10186000C4B2082CE3DB002210211248FFF7DDF898
:10187000402000F021F8102211460E48FFF7D5F85D
:10188000002210210B48FFF7D0F8C02000F014F818
:10189000002405E01DF8040000F00EF8601CC4B23E
:1018A000102CF7DB102211460248FFF7BEF8BDE806
:1018B000FF8100000010064070B504462021114849
:1018C000FFF7A5F800251AE0002201210E48FFF7D6
:1018D000ACF804F0010028B1202211460948FFF7B6
:1018E000A4F804E0002220210648FFF79EF86410C7
:1018F000012211460448FFF798F8681CC5B2082D6C
:10190000E2DB70BD001006400030064070B50024D8
:1019100020211148FFF76DF8002518E0641000221F
:1019200001210E48FFF781F8012211460B48FFF70D
:101930007CF820210848FFF74BF808B144F08004F8
:10194000002201210548FFF770F8681CC5B2082D78
:10195000E4DB204670BD0000001006400030064069
:101960002DED048BFEF738FF00BF7A48007803287E
:10197000FBDBFFF7F1FE012077490870E8E0FFF795
:1019800015FA7648007801287ED100207349087046
:1019900073480078012859D1724800684FF47A7171
:1019A000B0FBF1F0704908716E4800686421B0FB2B
:1019B000F1F00A21B0FBF1F201FB12006A49487113
:1019C000684800680A21B0FBF1F0B0FBF1F201FBBE
:1019D000120065498871634800680A21B0FBF1F282
:1019E00001FB12006049C8716048006800F0FBFA12
:1019F00041EC190B9FED5E0B53EC102B00F06EF9D0
:101A000041EC180B00F0C2FA5749087057480068BB
:101A10006421B0FBF1F00A21B0FBF1F201FB1200EE
:101A200051494870514800680A21B0FBF1F0B0FB01
:101A3000F1F201FB12004C4988704C4800680A2101
:101A4000B0FBF1F201FB12004749C870444800782E
:101A500002285BD1454800684FF47A71B0FBF1F081
:101A600041490871414800686421B0FBF1F00A2146
:101A7000B0FBF1F201FB12003B4948713B480068A2
:101A80000A21B0FBF1F000E044E0B0FBF1F201FB11
:101A9000120035498871354800680A21B0FBF1F21F
:101AA00001FB12003049C8713348006800F09BFA0E
:101AB00041EC190B9FED2E0B53EC102B00F00EF99F
:101AC00041EC180B00F062FA274908702A480068B8
:101AD0006421B0FBF1F00A21B0FBF1F201FB12002E
:101AE00021494870244800680A21B0FBF1F0B0FB9E
:101AF000F1F201FB12001C4988701F4800680A219E
:101B0000B0FBF1F201FB12001749C8701B480068D6
:101B1000FEF728FE1A480078012810D10020184945
:101B2000087018480578002405E01649601C085C18
:101B30000855601CC4B2072CF7DB1248C571124867
:101B40000078012804D100200F490870FEF778FFC3
:101B500015E70000000000202C00002005000020F8
:101B600069000020500000201000002054000020D8
:101B70000000000000408F4058000020240000209A
:101B800006000020190000200700002010B591EA8F
:101B9000030F48BF83F0004300F13E83841A71EBCA
:101BA000030C05D2121943EB0C03001B61EB0C0173
:101BB000DFF824E14FEA1154A4EB135C1EEA430F53
:101BC00018BF9EEA445F73D023EA0E03DCF1200EB7
:101BD00021EA045143F4801332D322FA0CFE10EBB5
:101BE0000E0023FA0CFE41EB0E01CCF1200E03FA9D
:101BF0000EFE10EB0E0051F10001B1F5801FCCF18B
:101C0000200E32D201EB045112FA0EF2BDE8104060
:101C100058BF7047401C38BF5FEA420218BF704788
:101C2000002814BF20F0010041F100014FEA4103F8
:101C300013F5001F38BF7047A1F1C04100F0DEBAB4
:101C4000012A43EB0302ACF1200CDCF11F0E32BF82
:101C50004FF0000E23FA0CF310EB030041EB04519C
:101C6000B4EB115FD0D0A1EB045101F5801149080C
:101C70005FEA300001EB04510ED350F1000038BF91
:101C800012FA0EFE08D1BDE81040C9E7401C38BF6B
:101C90005FEA4202CAD1C3E7BDE810404FEA410300
:101CA00013F5001F38BF7047A1F1C04100F0A6BA7C
:101CB0009EEA445F08D011EA5E0FBDE8104004BF01
:101CC00001F0004100207047BDE8104070B500F001
:101CD00047FA00BF64FBBE3E0000E0FF2DE9C041B3
:101CE00030B4DFF8A0C23CEA111418BF3CEA131468
:101CF00000F0EC8081EA03051CEA111444EAD57473
:101D000018BF1CEA131500F0C780A4EB05044FF0C0
:101D1000004545EAC12145EAC32341EA505143EA5F
:101D2000525304F17F74994204F500344FEAC02005
:101D30004FEAC22208BF904200F09C804FEA136530
:101D40000FF24016765D4FEA134506FB05F7C7F123
:101D5000807706FB07F74FEAD737A7FB0368764281
:101D6000C8F58038A7FB06CE38BFA8F1010807FBED
:101D700008E64FF0000EA6FB028CE6FB03CEDCF17A
:101D8000000CCEF1004E38BFAEF1010EA6FB0C5890
:101D90004FF000074FF00005E6FB0E87A1FB08C6D9
:101DA000A0FB07CE16EB0E0645F10005E1FB07652B
:101DB00015F1E04E7EBFA4F580345FEA46066D4122
:101DC00016F1800745F100054FEA17274FEA06662E
:101DD00047EA0567A6F1DE46B6F1805F4FEA1525B2
:101DE0001FD9384624F0010C05EBC471BCF1FE6F1D
:101DF00001EB0C1102D8F0BCBDE8008124425CBFAD
:101E000001F5801E9EEAC47F02D4F0BCBDE80081CB
:101E1000244238D4F0BCA1F1C041BDE8004100F03B
:101E2000EDB94FEAD22242EA43524FEAD323A7FB4D
:101E300002864FEAD02040EA415007FB03661EEAC3
:101E40000E0F4FEAD12105FB026658BFA6EB0056E4
:101E5000B6EB00564FEA520E4EEAC37E18EB0E0E5A
:101E600056EB530EBDD518EB02085E417F1C55F1B1
:101E70000005B6E74FF480154FF000074FF000065D
:101E80004FF00008ADE7F0BC4FF0000001F1C04199
:101E900001F00041BDE8008111EA0C1F0CEA1315A6
:101EA00000D00CE013EA0C1F00F025804FF000007A
:101EB000F0BC81EA030101F00041BDE80081F0BC03
:101EC000BDE8004181EA030100F098B9F0BCBDE82B
:101ED000004170B500F044F9097EFC3E00F007B8FF
:101EE00081EA03014FF0000001F00041704781EAF0
:101EF000030100F083B9F0BCBDE800414FF00000E1
:101F000021497047FFFDFBF9F7F5F4F2F0EEEDEB38
:101F1000E9E8E6E4E3E1E0DEDDDBDAD8D7D5D4D3E7
:101F2000D1D0CFCDCCCBCAC8C7C6C5C4C2C1C0BF33
:101F3000BEBDBCBBBAB9B8B7B6B5B4B3B2B1B0AF39
:101F4000AEADACABAAA9A8A8A7A6A5A4A3A3A2A11D
:101F5000A09F9F9E9D9C9C9B9A99999897979695D8
:101F600095949393929191908F8F8E8E8D8C8C8B74
:101F70008B8A8989888887878685858484838382FC
:101F8000828181800000FF070000F87F4FEA115333
:101F9000A3F58063D3F11E03A8BFD3F1200C08DBA7
:101FA0004FF0004242EAC12252EA505232FA03F0A4
:101FB000704709420BD4102BC4BF0020704703F5B3
:101FC000787CBCF1FF3F05D04FF0FF3070474FF0F9
:101FD0000000704770B500F0C3F800BF499224803C
:101FE00000207047F0E7B0FA80F310FA03F10AD04E
:101FF000C3F11D0303F580634FEA41504FEA0352DA
:1020000002EBD12170474FF000007047DFF848C164
:1020100070B51CEA111E1EBF1CEA13159EEA0C0FB8
:1020200095EA0C0F00F06F8081EA030423EA4C1359
:102030004EEAD47E21EA4C1141F4801143F480131E
:10204000AE44A1FB024CA0FB0365AEF17F7E3619C6
:1020500055EB0C05A1FB034C4CF10003A0FB021C4B
:1020600016EB0C06654153F10003094218BF46F018
:10207000010613F4007F0BD14FEA03314FEA05301C
:10208000340341EA155140EA16506FF003020AE0AA
:102090004FEAC3214FEAC520F40241EA555140EA14
:1020A00056506FF0020202EB2E4201EB025585EA18
:1020B000CE710AD05FEA440C18BF24F0004450F1FE
:1020C000000041F1000120EAD47040F2FE7C62453C
:1020D00000D270BDA84214BF4FF080444FF040447E
:1020E000002E08BF0024BEF1806FA8BFA1F1C0413F
:1020F000BDE8704080F282804FF0000001F1C041E5
:1021000001F0004170479EEA0C0F0CEA131518BF4E
:1021100095EA0C0F06D04FF0000081EA030E0EF096
:10212000004170BD00F01CF88900013E00F007B8C6
:1021300000F009B84FEA430C5FEA5C5C08D081EA22
:10214000030100F05BB84FEA410C5FEA5C5CF6D13A
:102150004FF00000014970470000FF070000F87FC2
:102160000EF1020E2EF0030E5EF8046B364205D41B
:10217000012A43EB030515F5001F12D8012841EB96
:10218000010C1CF5001F0CD80ED14FEAD17C15F5BF
:10219000001F0CEB4C0C0CF1020C08BF4CEBD37C79
:1021A00004E04FF0080C01E04FEAD37C0CEB4C0547
:1021B00026FA05F606F00706B6F1040C06D20EEB79
:1021C000860CBDE870404CF0010C6047DFE80CF075
:1021D000090B02024FF000414FF00000A1F5002171
:1021E00070BD19461046012851EB010418BFD4F503
:1021F000001484BF002001F0004170BD0808A0F564
:1022000000114FEA3101704710B591EA030F48BF42
:1022100083F000433FF5C2AC841A71EB030C07D284
:1022200012198CF0004C43EB0C03001B61EB0C010A
:10223000DFF8A4E14FEA1154A4EB135C1EEA430F4C
:1022400018BF9EEA445F00F0B08023EA6E0352425A
:1022500021EA0451C3EB6E0338BF5B1EDCF1200E94
:1022600025D322FA0CFE10EB0E0043FA0CFE41EBD4
:102270000E01CCF1200E03FA0EFE10EB0E0051F110
:102280000001CCF1200E29D412FA0EF201EB045118
:10229000BDE8104058BF7047401C1CBFB2F1004F52
:1022A000704700280CBF491C20F00100704712EB5A
:1022B000020E43EB030218BF4FF0010E4EEA42023A
:1022C000ACF1200CDCF11E0E54D943FA0CFE10EBDD
:1022D0000E0051F1FF31CCF11E0ED5D50EF1010EDD
:1022E00012FA0EFE404141EB010101EB445C5FEA52
:1022F0005C5C10D910EBDE7001EB045138BFBEF10D
:10230000004FBDE8104018BF704700280CBF491CA3
:1023100020F00100704730D24FEAD42C11F50011A3
:1023200024F400641BD0B1FA81F20B3AA41AA41E63
:10233000D2F12003914030FA03F31943904001EBAE
:10234000CC71002C01EB0451BDE81040A8BF7047D0
:1023500001F1C0414FF0000001F000417047B0FAB8
:1023600080F310FA03F100D110BDE41A173C4805C0
:10237000C90AE4E701EB045110BD491001EB045117
:10238000BDE810404FEA300002E04FF00001704716
:102390004A0008BF0042F8D0B2F5001F28BF7047BE
:1023A00001F000414FF0000070479EEA445F07D003
:1023B00011EA5E0FBDE8104004BF00210020704705
:1023C000BDE8104070B5FFF7CBFE00BF40DFF63E22
:1023D00083F00041104670470000E0FF4FF040706E
:1023E000E1EE100A7047000000688909001C4E0EDB
:1023F00040420F0000201C0080841E000080250049
:10240000999E36000040380000093D0000803E00E3
:1024100000004B00404B4C0000204E00808D5B00C4
:1024200000C05D000080700000127A0000007D0096
:1024300080969800001BB7000080BB00C0E8CE006B
:10244000647ADA000024F4000000FA0080A8120187
:10245000002D310100366E0140787D014000000002
:1024600000000000000100003E0008000000000025
:1024700000010000A00000000200000000010000B8
:102480003454010000000000000100002B70060021
:102490000000000000010000280000000000000013
:1024A0000001000027000100000000000001000002
:1024B00020000000000000000001000050000000AB
:1024C00002000000000100001AAC00000000000043
:1024D0000001000017940900000000000001000046
:1024E0001698050000000000000100001400000024
:1024F0000000000000010000138008000000000040
:1025000000010000A0000000080000000001000021
:102510001000000000000000000100002800000082
:102520000200000000010000400000000400000064
:102530000001000060000000000000000001000039
:102540005D000C00000000000001000050000000D1
:1025500000000000000100004E000200000000002A
:102560000001000041AC010000000000000100007B
:102570003C00000000000000000100003A8009005B
:10258000000000000001000030000000000000001A
:102590000001000028000000000000000001000011
:1025A0002700010000000000000100002360060079
:1025B0000000000000010000216008000000000091
:1025C000000100001E0000000000000000010000EB
:1025D0001DC00400000000000001000050000000C9
:1025E00002000000000100001800000000000000D0
:1025F00000010000140000000000000000010000C5
:102600006000000004000000000100000024F4004D
:1026100030003000005A620291009100008793035D
:10262000D200D20000B4C4041301130100E1F50587
:1026300054015401000E2707950195015C26000006
:1026400000000020940000003C020000F026000082
:1026500094000020CC03000058020000000000009D
:1026600000000000000000000000000020202020EA
:102670005F205F2011010101010101010000000044
:10268000FF030000FA00000000000000000000004E
:10269000000000000000000000000000000000003A
:1026A000000000000000000000000000000000002A
:1026B000000000000000000000000000000000001A
:1026C0000000000000000100000000000000000009
:1026D00000000000000000001400000000000000E6
:1026E0000000000000000000000000000024F400D2
:0400000500000201F4
:00000001FF
