:020000040000FA
:10000000C0030020C9020000D1020000D30200009A
:10001000D5020000D7020000D90200000000000055
:10002000000000000000000000000000DB020000F3
:10003000DD02000000000000DF020000551000009B
:10004000E3020000E5020000E7020000E902000010
:10005000EB020000ED020000EF020000F1020000E0
:10006000F3020000F5020000F7020000F9020000B0
:10007000FB020000FD020000FF020000010300007F
:10008000030300000503000007030000090300004C
:100090000B0300000D0300000F030000110300001C
:1000A00013030000150300001703000019030000EC
:1000B0001B0300001D0300001F03000021030000BC
:1000C000230300002503000027030000290300008C
:1000D0002B0300002D0300002F030000310300005C
:1000E000330300003503000037030000390300002C
:1000F0003B0300003D0300003F03000041030000FC
:1001000043030000450300004703000049030000CB
:100110004B0300004D0300004F030000510300009B
:10012000530300005503000057030000590300006B
:100130005B0300005D0300005F030000610300003B
:1001400063030000650300006703000081030000F3
:100150000000000000000000830300008503000091
:100160008703000089030000000000008B030000EB
:100170008D0300008F030000910300009303000033
:100180009503000097030000990300009B03000003
:100190009D0300009F030000A1030000A3030000D3
:1001A000A5030000A7030000A9030000AB030000A3
:1001B000AD030000AF030000B1030000B303000073
:1001C000B5030000B7030000B9030000BB03000043
:1001D000BD030000BF030000C1030000C303000013
:1001E000C5030000C7030000C9030000CB030000E3
:1001F000CD030000CF030000D1030000D3030000B3
:1002000000F002F800F03CF80AA090E8000C8244EC
:100210008344AAF10107DA4501D100F031F8AFF2C9
:10022000090EBAE80F0013F0010F18BFFB1A43F0D4
:10023000010318476C2100008C210000103A24BFF4
:1002400078C878C1FAD8520724BF30C830C144BF3B
:1002500004680C607047000000230024002500267D
:10026000103A28BF78C1FBD8520728BF30C148BF19
:100270000B6070471FB501F063FF1FBD10B510BDC7
:1002800000F0BBF81146FFF7F5FF01F061F900F04F
:10029000D9F803B4FFF7F2FF03BC00F0E1F8000067
:1002A000EFF3108072B67047EFF310807047EFF3F2
:1002B000108062B6704730BF704780F31188704776
:1002C000EFF31180704700004548804745480047DC
:1002D000FEE7FEE7FEE7FEE7FEE7FEE7FEE7FEE7F6
:1002E000FEE7FEE7FEE7FEE7FEE7FEE7FEE7FEE7E6
:1002F000FEE7FEE7FEE7FEE7FEE7FEE7FEE7FEE7D6
:10030000FEE7FEE7FEE7FEE7FEE7FEE7FEE7FEE7C5
:10031000FEE7FEE7FEE7FEE7FEE7FEE7FEE7FEE7B5
:10032000FEE7FEE7FEE7FEE7FEE7FEE7FEE7FEE7A5
:10033000FEE7FEE7FEE7FEE7FEE7FEE7FEE7FEE795
:10034000FEE7FEE7FEE7FEE7FEE7FEE7FEE7FEE785
:10035000FEE7FEE7FEE7FEE7FEE7FEE7FEE7FEE775
:10036000FEE7FEE7FEE7FEE7FEE7FEE7FEE7FEE765
:10037000FEE7FEE7FEE7FEE7FEE7FEE7FEE7FEE755
:10038000FEE7FEE7FEE7FEE7FEE7FEE7FEE7FEE745
:10039000FEE7FEE7FEE7FEE7FEE7FEE7FEE7FEE735
:1003A000FEE7FEE7FEE7FEE7FEE7FEE7FEE7FEE725
:1003B000FEE7FEE7FEE7FEE7FEE7FEE7FEE7FEE715
:1003C000FEE7FEE7FEE7FEE7FEE7FEE7FEE7FEE705
:1003D000FEE7FEE704480549034A054B7047000065
:1003E0002512000001020000C0010020C00300200F
:1003F000C0010020704770477047754600F02CF828
:10040000AE4605006946534620F00700854618B001
:1004100020B5FFF7DFFFBDE820404FF000064FF0AA
:1004200000074FF000084FF0000B21F00701AC4629
:10043000ACE8C009ACE8C009ACE8C009ACE8C00948
:100440008D46704710B50446AFF300802046BDE8E6
:100450001040FFF71EBF00000048704760010020F9
:1004600001491820ABBEFEE72600020070470000DD
:1004700010B5124800F0A0FD114800F09DFD0621C6
:10048000104800F072FA00231A4601210E4800F0CD
:1004900049F80223002201210B4800F08CF8612367
:1004A00001221146084800F086F80121064800F0B4
:1004B0007BF80121044800F009F810BD003800F075
:1004C000040800F00040024000800340012202FACC
:1004D00001F1C160704732B1C0684FF0011202FAF9
:1004E00001F108407047406801228A4042F480329E
:1004F000104010F4803F08BF704740F470204FF464
:10050000803202FA01F1884370470A4601F00F0178
:1005100001236FF30F0203FA01F11143826A1143C1
:100520008162704730B4446989004FF00F0C0CFAB7
:1005300001FC02F00F0524EA0C048D402C434461B9
:10054000046A03F0030324EA0C0C03FA01F14CEAF9
:100550000101016202F00F018B1F032B84BF30BC2D
:100560007047C900C3694FF0300C30390CFA01FCF8
:1005700002F0300223EA0C0302FA01F11943C161CF
:1005800030BC704700EB411000F14001002003E057
:100590008B6842F8043B401CCB6813F4807F18BF83
:1005A00070470828F4D370470268012303FA01F169
:1005B00011430160704710B400EB4110910050F8F6
:1005C00040CF0F228A4003F00F042CEA020C8C402B
:1005D0004CEA040CC0F800C0D0F818C0C3F30324E0
:1005E0002CEA020C8C404CEA040CC0F818C0D0F87D
:1005F00004C0C3F303142CEA020C8C404CEA040C34
:10060000C0F804C0D0F81CC0C3F303542CEA020C99
:100610008C404CEA040CC0F81CC013F4702F4FF04F
:1006200001040DD0D0F814C0C3F302432CEA020237
:100630008B401A434261026904FA01F1114304E05C
:10064000026904FA01F122EA0101016110BC70475C
:1006500010B501210A48FFF758FF00BF0022012111
:100660000748FFF738FF0028F8D001210448FFF7BA
:100670002DFF044A01210248FFF784FF10BD00004E
:10068000008003403000002070B50646802501241C
:100690001AE006EA050028B900220121154800F0F9
:1006A0008EF904E001221146124800F088F9022276
:1006B0001146104800F083F9002202210D4800F095
:1006C0007EF96D10601CC4B2082CE2DD01210948DE
:1006D00000F059F902221146064800F070F9002294
:1006E0000221044800F06BF90121024800F059F999
:1006F00070BD0000002006402DE9F0410546AE0027
:1007000002221146184800F05AF9012211461648F3
:1007100000F055F900220121134800F050F90022A1
:100720000221114800F04BF99820FFF7ADFFC6F306
:100730000724A6EB0420C7B22046FFF7A5FF3846E2
:10074000FFF7A2FF00220121074800F038F902223A
:100750001146054800F033F901221146024800F025
:100760002EF9BDE8F08100000020064010B50749D1
:10077000074800F0AFFA0749086000F021F8FFF7DA
:1007800077FE00F04BFC00F01DF910BD40420F0059
:10079000800600F12C000020D0F8003412F0010F88
:1007A00014BF0B438B43C0F8003412F0020FD0F893
:1007B000202414BF114322EA0101C0F8201470471D
:1007C00010B5164800F0F8FB00BF144800F008FC14
:1007D0000028FAD01148801C00F0EEFB00BF0F4843
:1007E000801C00F0FDFB0028F9D00C48401C00F0F4
:1007F000E3FB00BF0948401C00F0F2FB0028F9D0E1
:100800003021074800F0CDF80121064800F0C9F872
:100810000321054800F0C5F810BD0000090800F0EC
:100820000010064000300640002006402DE9F0038D
:1008300001264FF0000C0325C2F3411706FA0CF411
:100840000C4211D0D0F8C48F4FEA4C0405FA04F9D9
:1008500028EA0908C0F8C48FD0F8C48F07FA04F456
:1008600048EA0404C0F8C44F0CF1010C0CF0FF0C72
:10087000BCF1080FE2D3D0F800C512F0010F14BF8D
:100880004CEA010C2CEA010CC0F800C5D0F804C5F4
:1008900012F0020F14BF4CEA010C2CEA010CC0F854
:1008A00004C5D0F808C512F0040F14BF4CEA010CBF
:1008B0002CEA010CC0F808C5D0F818C512F0080FD2
:1008C00014BF4CEA010C2CEA010CC0F818C512F058
:1008D000100FD0F83C2514BF0A438A43C0F83C25CA
:1008E000D0F80C2513F0010F14BF0A438A43C0F857
:1008F0000C25D0F8102513F0020F14BF0A438A43C9
:10090000C0F81025D0F8142513F0040F14BF0A43C3
:100910008A43C0F81425D0F81C2513F0080F14BF23
:100920000A438A43C0F81C25D0F8442513F4007FFD
:1009300014BF0A438A43C0F84425D0F8402513F475
:10094000407F14BF0A438A43C0F84025D0F82825C9
:10095000002B0CBF114322EA0101C0F82815BDE8A5
:10096000F003704750F82100704730B50C4605463B
:100970000022FFF711FF21462846BDE83040002342
:100980000122FFF753BF30B50C4605460022FFF7A2
:1009900003FF21462846BDE8304008230122FFF727
:1009A00045BF30B50C46054608230122FFF73EFF40
:1009B00021462846BDE830400122FFF7EDBE40F851
:1009C0002120704710B5FFF772FC002818BF0120E6
:1009D00010BD000010B52DED088BAC480078012843
:1009E00006D0022833D003283FD004282ED132E18C
:1009F000A748006801F0A9F941EC1B0B9FEDA50B7E
:100A000053EC102B01F0B2FA41EC1A0B9FEDA30B43
:100A100053EC102B01F0ACF941EC190B9FEDA10B3D
:100A200053EC102B01F00CF841EC180B01F060F9BD
:100A30009E490860964800689D49086002209349D5
:100A4000087000209B4908709B49087017E19A487C
:100A5000007830B100209849087003208B49087055
:100A600002E002208949087009E19148006888493C
:100A7000096888427ED191480068854909688842A2
:100A800060D98F48006841F2504188425AD28B4861
:100A900000687F490968401A8A490860084600686A
:100AA0000A2813DA81480068874908600846006808
:100AB00086490968401A09D0834800688349096853
:100AC000401A0A2802D20120814908708048007823
:100AD00050B17D4800687D4909680844012101EB57
:100AE0005000724908600EE076480068142805DD61
:100AF0006E480068401F6D49086004E06B4800685C
:100B0000401E6A49086069480068502806D867484E
:100B10000068482802D34B20644908606348006895
:100B20007D2806D861480068762802D378205F497E
:100B3000086000205F4908705F490870022053492F
:100B400008707AE05D48006851490968884261D2BE
:100B50005B48006841F2504188425BD24C480068D3
:100B600056490968401A57490860084600680A282B
:100B700014DA00E05EE04D480068544908605248CD
:100B800000680968401A09D04F4800684F49096851
:100B9000401A0A2802D201204D4908704C480078BA
:100BA00050B149480068494909680844012101EBEE
:100BB00050003E4908600EE042480068142805DDF8
:100BC0003A480068401D3949086004E03748006829
:100BD000401C3649086035480068502806D833481C
:100BE0000068482802D34B20304908602F4800682D
:100BF0007D2806D82D480068762802D378202B4916
:100C0000086000202B4908702B49087002201F49FA
:100C1000087012E0294800681D49096888420CD212
:100C20002748006841F25041884206D904201749FC
:100C3000087002E00120154908701D480068144939
:100C40000968884202D001201049087010480068E5
:100C50001749086013E00E4800681849096888427F
:100C600009D91748006841F25041884203D904204D
:100C70000649087002E003200449087000BF00BF65
:100C8000002013490870BDEC088B10BD5A000020ED
:100C9000500000203D0AD7A3703D0E400000000028
:100CA0000000604000000000004071402000002073
:100CB000540000200300002007000020480000200E
:100CC000440000205C000020600000206400002040
:100CD000680000202DE9F003AD4D02462868AD4BB9
:100CE0001840A0F18053B3F5A02358D002F0380982
:100CF000DFF8A482C2F38414B9F1100F24D0B9F143
:100D0000300F04BF47F230504FF400130CD038209E
:100D1000904304BF4FF40040C30105D012F0380FD8
:100D20001CBF0020034613D09C4F12F4605F4FF0AD
:100D3000000618BF00222CD057F8324044457DD31E
:100D400007EBC2025268DFE0002340461524EBE7C0
:100D5000A4F10900122822D29148D5F87CC04FF0A6
:100D60004C7350F824002CF01C0C072CA8BF4CF03E
:100D7000100CC5F87CC02E6D4FF4002C16F4807F4B
:100D8000D2D1BCF1010C0AD02E6D16F4807FF8D0C0
:100D9000CAE712F0380F18BFB9F1100F03D0BDE841
:100DA000F00300207047C2F30268DFF8F8C10022A8
:100DB00057F83290E14503D307EBC202526803E0D3
:100DC000521C062AF4D33246C5F8C020D5F8B0200C
:100DD000DFF8D4C102EA0C0242F00042C5F8B020AC
:100DE000DFF8C8C1A4F109024C1E5CF828C0A44475
:100DF000BCFBF1FCD5F8B0101943C5F8B01008EBF6
:100E0000C80101EB41046A4902EB420201EBC40153
:100E100001EB82046468C5F86441D5F864416FF061
:100E2000FF0808EB0C2C44EA0C0CC5F864C151F81F
:100E30002210D5F8602102F4000200E05FE01143C7
:100E4000C5F86011D5F86011D5F86021C1F389218A
:100E5000C2F30904D5F86421C2F3042202F1010CA3
:100E6000D5F8642102F01F02521CB0FBF2F04A09CF
:100E7000C2F100084443424301EB481104EB521213
:100E8000484302EB9020B0FBFCF0410808460022EA
:100E900057F832C0844503D307EBC200466802E02E
:100EA000521C062AF4D3C5F8C060D5F8600110F4CE
:100EB000000F1DBFD5F8B00040F08040C5F8B0006D
:100EC000D5F8600104BF40F40000C5F860014FF49C
:100ED0000040D5F8682112F0010F02D1401E002811
:100EE000F7DC002808BF002148D0D5F8B00018432F
:100EF00040F0010040F01040C5F8B0003EE0521C48
:100F0000062AFFF419AF3246C5F8C020D5F8602193
:100F100022F40002C5F86021D5F8B020DFF894C0B3
:100F200002EA0C0242F00042C5F8B020002908BFD6
:100F30004FF0000C0AD0B0FBF1FCBCF1000F18BF61
:100F4000ACF1010C0CF10101B0FBF1F108460022FB
:100F500057F83240844203D307EBC200466802E0F0
:100F6000521C062AF4D3C5F8C060D5F8B00043EA95
:100F70008C22104340F00040C5F8B000D5F8B00016
:100F800020F47000C5F8B000BDE8F00308467047D3
:100F900000E00F400000FF700024F4007023000008
:100FA0005421000040787D0100FC0FE04C2100003E
:100FB000C0210000FF0300EFC0F307230749C0B2C0
:100FC000194401F07043C1F3130143EA411141EAAE
:100FD000800040F0007001220260704700E60F4080
:100FE000C0F307220849C0B2114401F07042C1F3B6
:100FF000130142EA411141EA800040F000700068AC
:10100000002818BF0120704700EA0F404FF0E02091
:10101000016941F0050101617047000010B5064803
:1010200000683221B0FBF1F4204600F00EF8FFF723
:10103000EDFF00F003F810BD2C0000204FF0E02081
:10104000016941F00201016170474FF0E021401E4B
:101050004861704710B563480078401CC0B26149D0
:101060000870052805DB01205F49087000205D49F4
:1010700008705E480078401CC0B25C4908700228C5
:1010800005DB01205A49087000205849087059486A
:101090000078401CC0B257490870192805DB0120B0
:1010A0005549087000205349087054480078401C86
:1010B000C0B2524908700C2805DB01205049087065
:1010C00000204E4908704F4A4F4801784F4800F0C1
:1010D0009DF900F04BF94E49087008460078002849
:1010E0007CD04C480078042805DA4A480078401C37
:1010F0004849087075E047480078042871D1444891
:1011000000780A2864D2DFE800F06305203C132F42
:101110004A565A5F40480068B0F5617F07D83E489C
:10112000006864303C49086001203C49087050E088
:1011300039480068642807D337480068643836495E
:10114000086001203549087043E03348006840F2E8
:10115000DF31884207D2304800680A302E490860E3
:1011600001202E49087034E02B4800680A2807D374
:10117000294800680A382849086001202749087072
:1011800027E025480068B0F57A7F07D2224800683A
:10119000401C2149086001202049087019E01E48C0
:1011A000006838B11C480068401E1B4908600120D7
:1011B0001A4908700DE001201949087009E0022061
:1011C0001749087005E009E003201549087000E0A0
:1011D00000BF00BF05200F49087002E000200D4944
:1011E000087010BD00000020040000200200002054
:1011F0000600002001000020050000200300002060
:101200000700002015000020140000200C00002022
:101210001D0000201E00002050000020280000209B
:10122000590000200448006840F47000024908603A
:10123000024803490860704788ED00E00024F4008C
:101240006C000020014600202D2956D014DC2129F5
:1012500076D2DFE801F030323436383A3C3E404254
:101260004446484A4C4E7575757575757575757536
:1012700075757575757554004C294ED00ADCA1F151
:101280004102092A5CD2DFE802F03E5B594E4C4431
:101290003C524000592948D006DC4E2937D052290B
:1012A0003DD055294CD136E05F2924D0622943D066
:1012B0006F2945D13EE03F2044E0062042E05B201C
:1012C00040E04F203EE066203CE06D203AE07D208B
:1012D00038E0072036E07F2034E06F2032E07720CE
:1012E00030E07C202EE039202CE05E202AE07920BE
:1012F00028E0712026E0082024E0402022E00020A1
:1013000020E03D201EE077201CE006201AE0372078
:1013100018E0712016E03E2014E0382012E0502042
:1013200010E079200EE05E200CE06E200AE07620CE
:1013300008E005E05C2005E07C2003E0392001E0C6
:10134000002000BF00BF704710B5002210210648E2
:10135000FFF735FB8A2000F0A7F81022114602485B
:10136000FFF72DFB10BD00000010064038B500252A
:10137000002210212448FFF722FB422000F094F8BD
:10138000002401E0601CC4B2052CFBDB002405E056
:1013900000F0B4F80DF80400601CC4B2042CF7DBB4
:1013A000102211461848FFF70AFB9DF80000042898
:1013B00000D101259DF80000022800D102259DF8EA
:1013C0000000012800D103259DF80000402800D12D
:1013D00004259DF80000202800D105259DF8000077
:1013E000102800D106259DF80100042800D107250A
:1013F0009DF80100022800D108259DF80100012870
:1014000000D10925284638BD001006402DE9FF41CE
:1014100005460E4617464FF00108002419E0285DE6
:10142000FFF710FF0DF8140006EA080028B11DF8B8
:10143000140040F080000DF814004FEA48604FEAB5
:101440001068385D012101EB44010DF80100601CBA
:10145000C4B2082CE3DB002210211248FFF7AFFAD8
:10146000402000F021F8102211460E48FFF7A7FA9D
:10147000002210210B48FFF7A2FAC02000F014F858
:10148000002405E01DF8040000F00EF8601CC4B252
:10149000102CF7DB102211460248FFF790FABDE846
:1014A000FF8100000010064070B50446202111485D
:1014B000FFF777FA00251AE0002201210E48FFF716
:1014C0007EFA04F0010028B1202211460948FFF7F6
:1014D00076FA04E0002220210648FFF770FA641033
:1014E000012211460448FFF76AFA681CC5B2082DAC
:1014F000E2DB70BD001006400030064070B50024ED
:1015000020211148FFF73FFA002518E0641000225F
:1015100001210E48FFF753FA012211460B48FFF74D
:101520004EFA20210848FFF71DFA08B144F0800464
:10153000002201210548FFF742FA681CC5B2082DB8
:10154000E4DB204670BD000000100640003006407D
:101550002DED048BFFF70AF900BFC9480078032876
:10156000FBDBFFF7F1FE0120C649087087E1FFF7BA
:1015700031FAC548007801287ED10020C2490870A0
:10158000C248007801282AD11120C1490870C148F9
:1015900000684FF47A71B0FBF1F0BF490871BD48A3
:1015A00000686421B0FBF1F00A21B0FBF1F201FB0D
:1015B0001200B9494871B74800680A21B0FBF1F040
:1015C000B0FBF1F201FB1200B3498871B148006829
:1015D0000A21B0FBF1F201FB1200AF49C871AB4820
:1015E000007802282AD11120A9490870AB48006868
:1015F0004FF47A71B0FBF1F0A7490871A748006871
:101600006421B0FBF1F00A21B0FBF1F201FB120002
:10161000A1494871A14800680A21B0FBF1F0B0FB74
:10162000F1F201FB12009C4988719C4800680A2174
:10163000B0FBF1F201FB12009749C87193480078A2
:1016400003282CD1012092490870954800684FF476
:101650007A71B0FBF1F090490871914800686421FB
:10166000B0FBF1F00A21B0FBF1F201FB12008A4954
:1016700048718B48006800E047E00A21B0FBF1F0B8
:10168000B0FBF1F201FB12008349887184480068C5
:101690000A21B0FBF1F201FB12007F49C8718148B9
:1016A000006800F052FB41EC190B9FED7F0B53ECEF
:1016B000102B00F0C5F941EC180B00F019FB76492E
:1016C0000870784800686421B0FBF1F00A21B0FB93
:1016D000F1F201FB120070494870724800680A215B
:1016E000B0FBF1F0B0FBF1F201FB12006A49887027
:1016F0006C4800680A21B0FBF1F201FB1200664958
:10170000C87067480068FEF7F7FF6948007801284D
:1017100010D100206649087066480578002405E06D
:101720006449601C085C0855601CC4B2072CF7DBD8
:101730006048C5716048007801287DD100205E496D
:1017400008705E485E49097850F821005D490968D3
:10175000081A5C4908605C485C49097850F8210027
:101760005B490968081A5A490860FEF771FF594831
:1017700000685249524A127841F8220008465049FE
:10178000097850F821004F49096808444D4908601C
:101790004B480078401C1E2190FBF1F201FB120027
:1017A000474908704B4840684749484A127841F811
:1017B000220008464549097850F821004449096843
:1017C00008444349086041480078401C1E2190FBB2
:1017D000F1F201FB12003D4908703A4800681E21F1
:1017E000B0FBF1F02B490860394800681E21B0FBBE
:1017F000F1F02A4908602748006800F0A6FA41EC99
:10180000190B9FED350B53EC102B00F019F941EC3F
:10181000180B00F06DFA1F4908602048006800F0BE
:1018200094FA41EC190B9FED2E0B53EC102B00F0AA
:1018300007F941EC180B00E021E000F059FA1749D4
:1018400008601448006840001249086013480068A6
:101850000F21B0FBF1F0114908600846006800F064
:1018600074FA41EC190B9FED200B53EC102B00F098
:10187000E7F841EC180B00F03BFA0849086076E6FF
:101880000000002028000020040000205900002053
:1018900014000020440000200C000020480000201C
:1018A00020000020500000200000000000408F4079
:1018B0000500002015000020060000207000002018
:1018C000380000203C000020E80000203900002003
:1018D0004000002030000020F931E6AE25E4F33F5F
:1018E0005839B4C876BEF33FB7D100DE0209BA3F1B
:1018F00010B591EA030F48BF83F0004300F13E8327
:10190000841A71EB030C05D2121943EB0C03001B74
:1019100061EB0C01DFF824E14FEA1154A4EB135CF6
:101920001EEA430F18BF9EEA445F73D023EA0E03FA
:10193000DCF1200E21EA045143F4801332D322FA61
:101940000CFE10EB0E0023FA0CFE41EB0E01CCF165
:10195000200E03FA0EFE10EB0E0051F10001B1F55E
:10196000801FCCF1200E32D201EB045112FA0EF29C
:10197000BDE8104058BF7047401C38BF5FEA4202C4
:1019800018BF7047002814BF20F0010041F100018A
:101990004FEA410313F5001F38BF7047A1F1C04162
:1019A00000F0DEBA012A43EB0302ACF1200CDCF1BB
:1019B0001F0E32BF4FF0000E23FA0CF310EB0300A2
:1019C00041EB0451B4EB115FD0D0A1EB045101F510
:1019D000801149085FEA300001EB04510ED350F149
:1019E000000038BF12FA0EFE08D1BDE81040C9E76A
:1019F000401C38BF5FEA4202CAD1C3E7BDE81040CD
:101A00004FEA410313F5001F38BF7047A1F1C041F1
:101A100000F0A6BA9EEA445F08D011EA5E0FBDE866
:101A2000104004BF01F0004100207047BDE81040A5
:101A300070B500F047FA00BF64FBBE3E0000E0FF57
:101A40002DE9C04130B4DFF8A0C23CEA111418BF40
:101A50003CEA131400F0EC8081EA03051CEA11143F
:101A600044EAD57418BF1CEA131500F0C780A4EB34
:101A700005044FF0004545EAC12145EAC32341EA88
:101A8000505143EA525304F17F74994204F50034F3
:101A90004FEAC0204FEAC22208BF904200F09C806B
:101AA0004FEA13650FF24016765D4FEA134506FBC9
:101AB00005F7C7F1807706FB07F74FEAD737A7FB93
:101AC00003687642C8F58038A7FB06CE38BFA8F178
:101AD000010807FB08E64FF0000EA6FB028CE6FBB0
:101AE00003CEDCF1000CCEF1004E38BFAEF1010E9A
:101AF000A6FB0C584FF000074FF00005E6FB0E87E1
:101B0000A1FB08C6A0FB07CE16EB0E0645F10005AB
:101B1000E1FB076515F1E04E7EBFA4F580345FEA76
:101B200046066D4116F1800745F100054FEA17277B
:101B30004FEA066647EA0567A6F1DE46B6F1805F22
:101B40004FEA15251FD9384624F0010C05EBC47166
:101B5000BCF1FE6F01EB0C1102D8F0BCBDE80081B6
:101B600024425CBF01F5801E9EEAC47F02D4F0BC13
:101B7000BDE80081244238D4F0BCA1F1C041BDE8E9
:101B8000004100F0EDB94FEAD22242EA43524FEA57
:101B9000D323A7FB02864FEAD02040EA415007FB3F
:101BA00003661EEA0E0F4FEAD12105FB026658BFFD
:101BB000A6EB0056B6EB00564FEA520E4EEAC37E35
:101BC00018EB0E0E56EB530EBDD518EB02085E4116
:101BD0007F1C55F10005B6E74FF480154FF0000764
:101BE0004FF000064FF00008ADE7F0BC4FF00000EA
:101BF00001F1C04101F00041BDE8008111EA0C1F74
:101C00000CEA131500D00CE013EA0C1F00F025803D
:101C10004FF00000F0BC81EA030101F00041BDE893
:101C20000081F0BCBDE8004181EA030100F098B9F1
:101C3000F0BCBDE8004170B500F044F9097EFC3EFF
:101C400000F007B881EA03014FF0000001F0004105
:101C5000704781EA030100F083B9F0BCBDE80041A0
:101C60004FF0000021497047FFFDFBF9F7F5F4F252
:101C7000F0EEEDEBE9E8E6E4E3E1E0DEDDDBDAD827
:101C8000D7D5D4D3D1D0CFCDCCCBCAC8C7C6C5C485
:101C9000C2C1C0BFBEBDBCBBBAB9B8B7B6B5B4B39C
:101CA000B2B1B0AFAEADACABAAA9A8A8A7A6A5A487
:101CB000A3A3A2A1A09F9F9E9D9C9C9B9A9999984B
:101CC0009797969595949393929191908F8F8E8EEE
:101CD0008D8C8C8B8B8A898988888787868585847B
:101CE00084838382828181800000FF070000F87F67
:101CF0004FEA1153A3F58063D3F11E03A8BFD3F1BC
:101D0000200C08DB4FF0004242EAC12252EA505256
:101D100032FA03F0704709420BD4102BC4BF0020E5
:101D2000704703F5787CBCF1FF3F05D04FF0FF30E2
:101D300070474FF00000704770B500F0C3F800BF67
:101D40004992248000207047F0E7B0FA80F310FA3F
:101D500003F10AD0C3F11D0303F580634FEA41503C
:101D60004FEA035202EBD12170474FF00000704759
:101D7000DFF848C170B51CEA111E1EBF1CEA13151E
:101D80009EEA0C0F95EA0C0F00F06F8081EA0304C5
:101D900023EA4C134EEAD47E21EA4C1141F480111F
:101DA00043F48013AE44A1FB024CA0FB0365AEF1EB
:101DB0007F7E361955EB0C05A1FB034C4CF100035B
:101DC000A0FB021C16EB0C06654153F1000309420F
:101DD00018BF46F0010613F4007F0BD14FEA033120
:101DE0004FEA0530340341EA155140EA16506FF0CE
:101DF00003020AE04FEAC3214FEAC520F40241EA98
:101E0000555140EA56506FF0020202EB2E4201EBB0
:101E1000025585EACE710AD05FEA440C18BF24F05F
:101E2000004450F1000041F1000120EAD47040F27A
:101E3000FE7C624500D270BDA84214BF4FF08044C2
:101E40004FF04044002E08BF0024BEF1806FA8BFB1
:101E5000A1F1C041BDE8704080F282804FF00000E7
:101E600001F1C04101F0004170479EEA0C0F0CEAFD
:101E7000131518BF95EA0C0F06D04FF0000081EA49
:101E8000030E0EF0004170BD00F01CF88900013E09
:101E900000F007B800F009B84FEA430C5FEA5C5C59
:101EA00008D081EA030100F05BB84FEA410C5FEA19
:101EB0005C5CF6D14FF00000014970470000FF075D
:101EC0000000F87F0EF1020E2EF0030E5EF8046B98
:101ED000364205D4012A43EB030515F5001F12D83D
:101EE000012841EB010C1CF5001F0CD80ED14FEA64
:101EF000D17C15F5001F0CEB4C0C0CF1020C08BF4B
:101F00004CEBD37C04E04FF0080C01E04FEAD37CAB
:101F10000CEB4C0526FA05F606F00706B6F1040CA4
:101F200006D20EEB860CBDE870404CF0010C604709
:101F3000DFE80CF0090B02024FF000414FF0000007
:101F4000A1F5002170BD19461046012851EB01048E
:101F500018BFD4F5001484BF002001F0004170BD0B
:101F60000808A0F500114FEA3101704710B591EA59
:101F7000030F48BF83F000433FF5C2AC841A71EBF6
:101F8000030C07D212198CF0004C43EB0C03001B1E
:101F900061EB0C01DFF8A4E14FEA1154A4EB135CF0
:101FA0001EEA430F18BF9EEA445F00F0B08023EAA8
:101FB0006E03524221EA0451C3EB6E0338BF5B1E2D
:101FC000DCF1200E25D322FA0CFE10EB0E0043FAB2
:101FD0000CFE41EB0E01CCF1200E03FA0EFE10EBCD
:101FE0000E0051F10001CCF1200E29D412FA0EF2AC
:101FF00001EB0451BDE8104058BF7047401C1CBFA6
:10200000B2F1004F704700280CBF491C20F00100BE
:10201000704712EB020E43EB030218BF4FF0010EA4
:102020004EEA4202ACF1200CDCF11E0E54D943FA08
:102030000CFE10EB0E0051F1FF31CCF11E0ED5D588
:102040000EF1010E12FA0EFE404141EB010101EBCF
:10205000445C5FEA5C5C10D910EBDE7001EB04516C
:1020600038BFBEF1004FBDE8104018BF70470028D0
:102070000CBF491C20F00100704730D24FEAD42C2D
:1020800011F5001124F400641BD0B1FA81F20B3A6F
:10209000A41AA41ED2F12003914030FA03F319438D
:1020A000904001EBCC71002C01EB0451BDE81040D5
:1020B000A8BF704701F1C0414FF0000001F000419E
:1020C0007047B0FA80F310FA03F100D110BDE41AA2
:1020D000173C4805C90AE4E701EB045110BD49105B
:1020E00001EB0451BDE810404FEA300002E04FF030
:1020F000000170474A0008BF0042F8D0B2F5001F47
:1021000028BF704701F000414FF0000070479EEA81
:10211000445F07D011EA5E0FBDE8104004BF002104
:1021200000207047BDE8104070B5FFF7CBFE00BF40
:1021300040DFF63E83F00041104670470000E0FFAC
:102140004FF04070E1EE100A704700000068890906
:10215000001C4E0E40420F0000201C0080841E0018
:1021600000802500999E36000040380000093D009F
:1021700000803E0000004B00404B4C0000204E0011
:10218000808D5B0000C05D000080700000127A004E
:1021900000007D0080969800001BB7000080BB0007
:1021A000C0E8CE00647ADA000024F4000000FA00EF
:1021B00080A81201002D310100366E0140787D01AA
:1021C0004000000000000000000100003E00080088
:1021D0000000000000010000A0000000020000005C
:1021E0000001000034540100000000000001000064
:1021F0002B70060000000000000100002800000015
:1022000000000000000100002700010000000000A5
:10221000000100002000000000000000000100009C
:102220005000000002000000000100001AAC000095
:1022300000000000000100001794090000000000E9
:1022400000010000169805000000000000010000D9
:1022500014000000000000000001000013800800CE
:102260000000000000010000A000000008000000C5
:10227000000100001000000000000000000100004C
:1022800028000000020000000001000040000000E3
:1022900004000000000100006000000000000000D9
:1022A000000100005D000C000000000000010000C3
:1022B0005000000000000000000100004E0002007D
:1022C000000000000001000041AC0100000000001F
:1022D000000100003C0000000000000000010000C0
:1022E0003A800900000000000001000030000000FA
:1022F00000000000000100002800000000000000B5
:1023000000010000270001000000000000010000A3
:1023100023600600000000000001000021600800AA
:1023200000000000000100001E000000000000008E
:10233000000100001DC004000000000000010000BA
:102340005000000002000000000100001800000022
:102350000000000000010000140000000000000068
:102360000001000060000000040000000001000007
:102370000024F40030003000005A62029100910005
:1023800000879303D200D20000B4C40413011301E8
:1023900000E1F50554015401000E27079501950150
:1023A000C023000000000020700000003C0200007C
:1023B000302400007000002050030000580200008C
:1023C000000000000000000000000000202020208D
:1023D0005F205F20110101010101010100000000E7
:1023E000FF030000FA0000000000000000000000F1
:1023F00000000000000000000000000000000000DD
:1024000000000000000000000000000000000000CC
:1024100000000000000000000000010000000000BB
:102420000000000000000000000000000024F40094
:0400000500000201F4
:00000001FF
